:020000040000FA
:100000000C9472000C949A000C949A000C949A0030
:100010000C949A000C949A000C949A000C949A00F8
:100020000C949A000C949A000C949A000C949A00E8
:100030000C949A000C949A000C949A000C949A00D8
:100040000C94EA080C949A000C945A090C94340904
:100050000C949A000C949A000C949A000C949A00B8
:100060000C948C090C949A0031343A33353A343676
:10007000004D61792031362032303234001F1C1F90
:100080001E1F1E1F1F1E1F1E000000002400270031
:100090002A0000000000250028002B0000000008B6
:1000A000000201000003040700000000000000003F
:1000B00000000000230026002900040404040404B6
:1000C0000404020202020202030303030303010207
:1000D00004081020408001020408102001020408D6
:1000E0001020B80A11241FBECFEFD8E0DEBFCDBF6D
:1000F00023E0A0EDB1E001C01D92AD3CB207E1F7F5
:1001000011E0A0E0B1E0ECE2F6E202C005900D9251
:10011000A03DB107D9F710E0C2E7D0E004C02197B5
:10012000FE010E94E911C137D107C9F70E94110BE6
:100130000C9414130C940000CF92DF92EF92FF9274
:10014000CF93DF93B091BD03A0E08111AB2F8091DD
:10015000BE0390E0880F991FAC0140555F4FC090DF
:10016000C303D090C403E090C503F090C60330E011
:1001700020E0FA01C591D491E881B90190E080E0D6
:10018000EB23EA130AC02F5F3F4F6C157D058E05E8
:100190009F0578F36FEF7FEFCB01DF91CF91FF9059
:1001A000EF90DF90CF90089590E0FC01E456FF4F70
:1001B0002491FC01E253FF4F3491FC01E654FF4FC0
:1001C000E491EE23C9F0222339F0233001F1A8F4A1
:1001D000213019F1223029F1F0E0EE0FFF1FEE5629
:1001E000FF4FA591B4918FB7F894EC91611126C09F
:1001F00030953E233C938FBF08952730A9F02830D7
:10020000C9F0243049F7809180008F7D03C0809130
:1002100080008F7780938000DFCF84B58F7784BD97
:10022000DBCF84B58F7DFBCF8091B0008F7780933B
:10023000B000D2CF8091B0008F7DF9CF3E2BDACFC6
:10024000CF93DF9390E0FC01E253FF4F249186545B
:100250009F4FFC0184918823D1F090E0880F991F73
:10026000FC01E857FF4FA591B491FC01EE56FF4FFA
:10027000C591D491623071F49FB7F8943C91822F6C
:10028000809583238C93E8812E2B28839FBFDF9159
:10029000CF9108958FB7F894EC912E2B2C938FBFAC
:1002A000F6CF3FB7F8948091930290919402A09179
:1002B0009502B091960226B5A89B05C02F3F19F074
:1002C0000196A11DB11D3FBFBA2FA92F982F8827D6
:1002D000BC01CD01620F711D811D911D42E0660FB1
:1002E000771F881F991F4A95D1F708958F929F9283
:1002F000AF92BF92CF92DF92EF92FF924B015C01DF
:100300000E9451016B017C010E9451016C197D0911
:100310008E099F09683E734081059105A8F321E08D
:10032000821A9108A108B10888EEC80E83E0D81E91
:10033000E11CF11C81149104A104B10429F7FF9080
:10034000EF90DF90CF90BF90AF909F908F900895E7
:10035000CF92DF92EF92FF920F931F93CF93DF9391
:10036000CDB7DEB7C054D1400FB6F894DEBF0FBE94
:10037000CDBF2FB7F8948091970290919802A091E9
:100380009902B0919A022FBF4091BF035091C003D0
:100390006091C1037091C2038C019D01041B150B78
:1003A000260B370BB901A801403D57406105710587
:1003B00090F48091C703C05CDE4F0FB6F894DEBFA7
:1003C0000FBECDBFDF91CF911F910F91FF90EF90A6
:1003D000DF90CF9008958093BF039093C003A093C4
:1003E000C103B093C2031092BA031092B9031092E2
:1003F000B8031092B7031092B60362E08091BB037A
:100400000E94200161E070E080E090E00E947601AF
:1004100061E08091BB030E94200160E08091BB03FA
:100420000E94D4008091BC038551823020F58BE27C
:1004300091E10197F1F762E08091BB030E942001F6
:100440008091C80390E08230910538F0880F991FA1
:10045000880F991F05970197F1F7F89480E00E94A3
:100460009C006F3F7F4F8F4F9F4F61F41092C703E7
:10047000789480E0A0CF64E170E080E090E00E949A
:100480007601D9CF81E00E949C006F3F7F4F8F4F54
:100490009F4F61F38E010F5F1F4F6E018FEBC81AE4
:1004A0008EEFD80A780180E00E949C00F7016083FB
:1004B00071838283938381E00E949C00F7016483AF
:1004C000758386839783F8E0EF0EF11CEC14FD042E
:1004D00051F7789430E020E0F801C080D180E280CC
:1004E000F3804481558166817781FFEFCF16DF0667
:1004F000EF06FF0631F04F3F8FEF58076807780788
:1005000019F41092C703B5CFF90183E0F595E7958B
:100510008A95E1F7EA54FC4F8081880FC416D5060E
:10052000E606F70610F180832F5F3F4F085F1F4FED
:100530002832310589F64091BA032091B6038091A3
:10054000B703280F3327331F8091B803280F311DBD
:100550008091B903820F932F911D9927481719068F
:1005600081F681E08093C70326CF8160DCCF0895B8
:100570000895AF92BF92CF92DF92EF92FF920F93C6
:100580001F93CF93DF936C017B018B01040F151F29
:10059000EB015E01AE18BF08C017D10759F0699191
:1005A000D601ED91FC910190F081E02DC6010995F5
:1005B000892B79F7C501DF91CF911F910F91FF90A2
:1005C000EF90DF90CF90BF90AF900895FC01538DD6
:1005D000448D252F30E0842F90E0821B930B54171D
:1005E00010F0CF96089501970895FC01918D828DAA
:1005F000981761F0A28DAE0FBF2FB11D5D968C9143
:10060000928D9F5F9F73928F90E008958FEF9FEF81
:100610000895FC01918D828D981731F0828DE80F3D
:10062000F11D858D90E008958FEF9FEF0895FC01F7
:10063000918D228D892F90E0805C9F4F821B9109C4
:100640008F73992708958DE093E00E94170321E0AE
:10065000892B09F420E0822F089580E090E0892B17
:1006600029F00E94230381110C9400000895FC01DD
:10067000A48DA80FB92FB11DA35ABF4F2C91848D03
:1006800090E001968F739927848FA689B7892C9360
:10069000A089B1898C91837080648C93938D848DB3
:1006A000981306C00288F389E02D80818F7D8083B6
:1006B0000895EF92FF920F931F93CF93DF93EC0176
:1006C00081E0888F9B8D8C8D98131AC0E889F989F9
:1006D000808185FF15C09FB7F894EE89FF896083FC
:1006E000E889F98980818370806480839FBF81E07D
:1006F00090E0DF91CF911F910F91FF90EF900895BF
:10070000F62E0B8D10E00F5F1F4F0F731127E02E99
:100710008C8D8E110CC00FB607FCFACFE889F989D1
:10072000808185FFF5CFCE010E943703F1CFEB8D9D
:10073000EC0FFD2FF11DE35AFF4FF0829FB7F894A5
:100740000B8FEA89FB8980818062CFCFCF93DF93C3
:10075000EC01888D8823B9F0AA89BB89E889F989D9
:100760008C9185FD03C0808186FD0DC00FB607FC0E
:10077000F7CF8C9185FFF2CF808185FFEDCFCE0141
:100780000E943703E9CFDF91CF9108952091F101C5
:10079000260F3327331F21323105ECF42091E30279
:1007A000FC0190E080E0243069F082E00895A0919F
:1007B000F1012191AC014F525E4FA40FB52FB11D35
:1007C0002C930196861798F38091F101680F60933E
:1007D000F10180E0089581E008951092E30281E044
:1007E0008093E2021092BD0261E082E10E94D40097
:1007F00061E083E10E94D400E9EBF0E080818E7F2C
:10080000808380818D7F808388E48093B80085E435
:100810008093BC000895CF93DF9391E09093D00133
:100820008823B9F0C091B800D091BA008091BC0083
:100830008A7B8093BC0060E082E10E94D40060E08B
:1008400083E10E94D4000E94ED03D093BA00C093CC
:10085000B800DF91CF9108958F929F92AF92BF928F
:10086000CF92DF92EF92FF920F931F93CF93DF937C
:10087000D0910C03D13208F0D7C0182FC0910B03D0
:100880000E9451016B017C018091E30281116BC0D8
:1008900082E08093E3021093E2028FEF8093E10203
:1008A0001092E002D093DF02ABEEB2E0EFEBF2E0A9
:1008B00080E0D81391C01092BE028091BE02CC0F8E
:1008C000C82BC093BE028091BD02813009F088C060
:1008D0001092BD020E9451016B017C018091BE0209
:1008E0008093BB008091E5029091E602A091E7021F
:1008F000B091E802892B8A2B8B2BA1F00E94510129
:100900000091E5021091E6022091E7023091E802A1
:100910006C197D098E099F090617170728073907E3
:1009200008F442C08091BC0083FDD8CF85EC809351
:10093000BC000E9451016B017C018091E302823076
:1009400009F450C08091E1028F3F09F46FC080919B
:10095000E102803209F46CC08091E102803309F435
:1009600069C084E026C08091E5029091E602A091E2
:10097000E702B091E802892B8A2B8B2B09F484CFF4
:100980000E9451018090E5029090E602A090E7025B
:10099000B090E8026C197D098E099F0986169706AA
:1009A000A806B90608F070CF8091E4020E940B04FB
:1009B00085E01092EA0210920C031092E902DF9196
:1009C000CF911F910F91FF90EF90DF90CF90BF904C
:1009D000AF909F908F9008959D9191938F5F69CF75
:1009E00085EEA5CF8091E5029091E602A091E70205
:1009F000B091E802892B8A2B8B2B09F49ECF0E94A1
:100A000051010091E5021091E6022091E702309138
:100A1000E8026C197D098E099F0906171707280738
:100A2000390708F08ACFC0CF81E0C3CF80E0C1CFC3
:100A300082E0BFCF83E0BDCF1F93CF93DF93EA0166
:100A4000122FDC0111968D919C91DC01ED91FC91AE
:100A50000280F381E02D0995C817D90729F4812F69
:100A60000E942C0491E0811190E0892FDF91CF91B9
:100A70001F910895CF93DF93EC018B818823A1F020
:100A8000888191E09093E90280930B031092EA022F
:100A900010920C0381E00E942C0491E0811190E0FF
:100AA000892FDF91CF91089510929C0210929B02A2
:100AB0001092EA0210920C030E94ED0387EB92E081
:100AC000909317028093160288EB92E090931502A0
:100AD0008093140281E08B83CE010E943A05982F07
:100AE0008111CECFDDCF0895E0919C0280919B02D1
:100AF000E81730F4F0E0E356FD4F808190E0089570
:100B00008FEF9FEF089590919C0280919B022FEFB1
:100B10003FEF981748F4E92FF0E0E356FD4F2081AE
:100B200030E09F5F90939C02C901089580919B02E1
:100B300090919C02891B990B0895CF92DF92EF92BE
:100B4000FF920F931F93CF93DF937C01CB018A0118
:100B50002091E902222389F0EB016B01C40ED51E1E
:100B6000CC15DD0569F06991D701ED91FC910190FB
:100B7000F081E02DC7010995F3CF642F0E94C603D1
:100B8000C801DF91CF911F910F91FF90EF90DF90FF
:100B9000CF900895CF93DF931F92CDB7DEB76983CF
:100BA0002091E9022223F9F020910C03203258F021
:100BB00021E030E0FC013383228390E080E00F905D
:100BC000DF91CF9108958091EA02E82FF0E0E5519E
:100BD000FD4F998190838F5F8093EA0280930C038D
:100BE00081E090E0ECCF61E0CE0101960E94C60367
:100BF000F7CF90E080E00895FC0101900020E9F734
:100C00003197AF01481B590BBC018DE093E00C9468
:100C1000B9028F929F92AF92BF920F931F93CF937F
:100C2000DF93CDB7DEB7A1970FB6F894DEBF0FBE46
:100C3000CDBF19A2423008F44AE08E010F5D1F4F6C
:100C4000842E912CB12CA12CA50194010E94C711D6
:100C5000E62FB901CA01EA30F4F4E05DD801EE9361
:100C60008D01232B242B252B79F790E080E0109722
:100C700019F0CD010E94FC05A1960FB6F894DEBFD5
:100C80000FBECDBFDF91CF911F910F91BF90AF905D
:100C90009F908F900895E95CE1CFCF93DF930E94FE
:100CA000FC05EC018AE291E00E94FC058C0F9D1F7F
:100CB000DF91CF9108952F923F924F925F926F9262
:100CC0007F928F929F92AF92BF92CF92DF92EF92DC
:100CD000FF920F931F93CF93DF935C011B016A0177
:100CE000F12CE12CD50114968D919C9186010E1961
:100CF0001F098017910708F48C01F501D0810E942B
:100D000051012B013C018091E302811172C0C02F7F
:100D1000013208F0C0E2F1E0F093E30221E0C60105
:100D2000801B910BE816F90608F420E02093E202FC
:100D30008FEF8093E1021092E0028C0F8093DF022C
:100D4000A1E0A093BE028091BE02DD0FD82BD0930C
:100D5000BE028091BD02813009F090C01092BD02A8
:100D60000E9451012B013C018091BE028093BB0087
:100D70008091E5029091E602A091E702B091E8022D
:100D8000892B8A2B8B2BA1F00E9451012091E50227
:100D90003091E6024091E7025091E802641975092A
:100DA00086099709261737074807590708F442C0EC
:100DB0008091BC0083FDD8CFB5ECB093BC000E94FD
:100DC00051012B013C018091E302813009F45AC0AA
:100DD0008091E0028C1710F4C091E002AFEBB2E01A
:100DE000EDE9F2E080E08C1751F19D9191938F5FD6
:100DF000FACF8091E5029091E602A091E702B091CE
:100E0000E802892B8A2B8B2B09F47DCF0E9451019C
:100E10002091E5023091E6024091E7025091E8020C
:100E2000641975098609970926173707480759076E
:100E300008F069CF8091E4020E940B04C0E0109298
:100E40009C02C0939B02C017110609F057C04101D4
:100E50008E0C9F1CE401CE01881999098017910717
:100E600098F5D50111968D919C91DC01ED91FC9145
:100E70000284F385E02D09958993EDCFE5EEE093AB
:100E8000BC009DCF8091E5029091E602A091E7021F
:100E9000B091E802892B8A2B8B2B09F494CF0E9406
:100EA00051012091E5023091E6024091E702509114
:100EB000E802641975098609970926173707480754
:100EC000590708F080CFB6CFE00EF11EEC14FD04F8
:100ED00008F408CF81E0DF91CF911F910F91FF902F
:100EE000EF90DF90CF90BF90AF909F908F907F90CA
:100EF0006F905F904F903F902F90089580E0EBCFE0
:100F00004F925F926F927F928F929F92AF92BF9219
:100F1000CF92DF92EF92FF920F931F93CF936B01CB
:100F20007C01742EAC019B010E94B611882399F0BC
:100F30008DE291E0CF911F910F91FF90EF90DF90A4
:100F4000CF90BF90AF909F908F907F906F905F9069
:100F50004F900C94FC0546015701E894B7F82FEF29
:100F60003FEF4FE75FE7C501B4010E94B611811161
:100F70000DC02FEF3FEF4FE75FE7C501B4010E94BF
:100F80004F0F18161CF481E391E0D4CF2FEF3FEF01
:100F90004FE75FE4C701B6010E94B11118161CF4B7
:100FA00085E391E0C7CF2FEF3FEF4FE75FECC7013D
:100FB000B6010E944F0F87FDF3CF20E030E0A9017A
:100FC000C701B6010E944F0F10E000E087FF0AC082
:100FD0006DE28DE093E00E9459038C01F7FAF094E2
:100FE000F7F8F094C0E060E070E080E09FE37C16EA
:100FF00041F020E030E040E251E40E941011CF5F68
:10100000F6CFA70196010E94A4102B013C010E947B
:1010100082114B015C014AE00E9409067C01E00E4E
:10102000F11ECC23C1F1C501B4010E94540F9B01F4
:10103000AC01C301B2010E94A3104B015C016EE23E
:101040008DE093E00E945903E80EF91EC15018F19B
:1010500020E030E040E251E4C501B4010E94B50F48
:101060002B013C010E9482114B01B12CA12C4AE0C2
:10107000C501B4010E940906E80EF91EC501B401BC
:101080000E94540F9B01AC01C301B2010E94A31046
:101090004B015C01DBCFC701CF911F910F91FF90F6
:1010A000EF90DF90CF90BF90AF909F908F907F9008
:1010B0006F905F904F900895CF92DF92EF92FF92E2
:1010C0000F931F93CF93DF93EB017B0124E0E20E9C
:1010D000F11C8B016C01C61AD70AC601800F911F43
:1010E0000E947310F80181938F01EE15FF05A9F797
:1010F000CE01DF91CF911F910F91FF90EF90DF9084
:10110000CF9008959F92AF92BF92CF92DF92EF92CD
:10111000FF920F931F93CF93DF935C017B018B01B1
:10112000D0E0C0E0F80191908F016501CC0EDD1E8A
:10113000C6010E947310981621F0692DC6010E9405
:101140007B102196C430D10569F7C701DF91CF919B
:101150001F910F91FF90EF90DF90CF90BF90AF90D5
:101160009F90089585ED8093BC008091E502909159
:10117000E602A091E702B091E8020796A11DB11D19
:1011800023E0B695A795979587952A95D1F7209155
:10119000BC0024FD03C01092E30208954091E502D3
:1011A0005091E6026091E7027091E802452B462BD0
:1011B000472B69F30097A105B10541F02AE22A9572
:1011C000F1F700C00197A109B109E1CF8091E402D4
:1011D0000C940B041F920F920FB60F9211242F93B1
:1011E0003F938F939F93AF93BF938091970290917A
:1011F0009802A0919902B0919A023091920223E054
:10120000230F2D3758F50196A11DB11D2093920291
:101210008093970290939802A0939902B0939A02B8
:101220008091930290919402A0919502B0919602C0
:101230000196A11DB11D8093930290939402A093F7
:101240009502B0939602BF91AF919F918F913F917C
:101250002F910F900FBE0F901F90189526E8230F27
:101260000296A11DB11DD2CF1F920F920FB60F9201
:1012700011242F933F934F935F936F937F938F939B
:101280009F93AF93BF93EF93FF938DE093E00E9402
:101290003703FF91EF91BF91AF919F918F917F9114
:1012A0006F915F914F913F912F910F900FBE0F90D3
:1012B0001F9018951F920F920FB60F9211242F9323
:1012C0008F939F93EF93FF93E0911D03F0911E0383
:1012D0008081E0912303F091240382FD1BC0908163
:1012E000809126038F5F8F7320912703821741F02F
:1012F000E0912603F0E0E35FFC4F958F8093260397
:10130000FF91EF919F918F912F910F900FBE0F90B2
:101310001F9018958081F4CF1F920F920FB60F92F5
:1013200011242F933F934F935F936F937F938F93EA
:101330009F93AF93BF93EF93FF938091B900887F02
:10134000803609F44AC0F0F5883209F4A7C018F5D0
:10135000803109F49BC0B8F4882309F4F9C08830BF
:1013600009F494C0FF91EF91BF91AF919F918F913C
:101370007F916F915F914F913F912F910F900FBE91
:101380000F901F901895883109F488C0803251F76A
:101390008093E10214C0803409F49DC040F480338E
:1013A000B9F38833F9F68093E10285ECB0C080355B
:1013B00009F485C0883509F496C0883499F60E94EE
:1013C000B208D0CF883909F48CC038F5883729F0B5
:1013D00050F4883611F0803729F683E08093E302D9
:1013E0001092130257C0883809F47BC0803919F075
:1013F000803809F0B7CF80911302803208F071C0B5
:10140000E091130281E08E0F809313028091BB0064
:10141000F0E0ED50FE4F80833DC0803B39F0E0F4BA
:10142000803A09F479C0883A09F09CCF84E080932F
:10143000E3021092F2011092F101E0911602F09194
:10144000170209958091F10181110FC081E080930D
:10145000F1011092D10109C0803C09F4A6CF883C6B
:1014600009F4A3CF883B09F07DCFE091F20181E040
:101470008E0F8093F201F0E0EF52FE4F8081809357
:10148000BB009091F2018091F10129C08091BE02D0
:101490008093BB0085EC8093BC0064CF9091E00208
:1014A0008091DF02981758F5E091E00281E08E0FFD
:1014B0008093E002F0E0E154FD4F8081E9CFE091BC
:1014C000E00281E08E0F8093E0028091BB00F0E0AB
:1014D000E154FD4F80839091E0028091DF029817E4
:1014E000C8F285E8D8CFE091E00281E08E0F8093CA
:1014F000E0028091BB00F0E0E154FD4F80838091D9
:10150000E20281115CCF81E08093BD0284EA809386
:10151000BC001092E30226CF85EC8093BC001092B1
:10152000E30280911302803230F4E0911302F0E084
:10153000ED50FE4F10826091130270E0E0911402B2
:10154000F091150283EF91E00995109213020ACFF2
:101550001092E10234CFFC01908190539A3008F050
:1015600090E0818180532AE0929F800D112408959C
:10157000EDE0F3E01382128288EE93E0A0E0B0E0A9
:1015800084839583A683B7832AE031E03183208367
:1015900025EC30E03587248724EC30E03787268738
:1015A00020EC30E0318B208B21EC30E0338B228B30
:1015B00022EC30E0358B248B26EC30E0378B268B09
:1015C000118E128E138E148EEAEAF3E013821282C9
:1015D00084839583A683B7838CE191E09183808394
:1015E000A6EBB3E082E015968C93159786E11696EC
:1015F0008C931697E0EDF0E0E4911796EC93179733
:10160000ECEBF0E0E4911896EC93189740E85EE379
:1016100060E070E01D964D935D936D937C935097C1
:101620000895CF93DF93CDB7DEB7A1970FB6F894A7
:10163000DEBF0FBECDBF789484B5826084BD84B513
:10164000816084BD85B5826085BD85B5816085BDBD
:1016500080916E00816080936E0010928100809175
:1016600081008260809381008091810081608093FD
:101670008100809180008160809380008091B10022
:1016800084608093B1008091B00081608093B0004D
:1016900080917A00846080937A0080917A008260E1
:1016A00080937A0080917A00816080937A008091A3
:1016B0007A00806880937A001092C100E0911D0347
:1016C000F0911E0382E08083E0911903F0911A03E8
:1016D0001082E0911B03F0911C038FEC8083109229
:1016E0002503E0912103F091220386E08083E091BD
:1016F0001F03F0912003808180618083E0911F03AC
:10170000F0912003808188608083E0911F03F09135
:101710002003808180688083E0911F03F091200383
:1017200080818F7D808362E08091BB030E942001D5
:101730002FB7F8948091970290919802A091990206
:10174000B0919A022FBF805D9740A109B1098093A3
:10175000BF039093C003A093C103B093C20387E378
:101760008093C8038091900290919102009711F0AC
:101770000E948B1286E090E00E94EF117C0188E6C7
:10178000F70180838AEA93E092838183138280E267
:1017900090E095838483F0929102E09290021092FF
:1017A0009C0210929B021092EA0210920C030E947B
:1017B000ED0387EB92E0909317028093160288EB7B
:1017C00092E0909315028093140201E0F7010383E5
:1017D000C7010E943A05811105C089E391E00E948A
:1017E0004D06FFCF1C8A8091900290919102FC01DE
:1017F00024813581232B89F020810093E9022093F5
:101800000B031092EA0210920C0321E041E050E039
:10181000BE016C5E7F4F0E941C0541E050E09E01BE
:101820002F5F3F4F7901B901809190029091910211
:101830000E945B06898190E0880F892F881F990B91
:10184000892B09F4A8C085E591E00E944D064BE084
:1018500050E061E770E0C7010E94460FCE010A9692
:101860000E94AB0A082FE981E154E33118F50E2EEE
:10187000000CFF0BE25CF34F0C94E911760D5A0C4F
:101880005A0C8A0D5A0C8C0D5A0C5A0C5A0C510CCD
:101890005A0C5A0C7D0D880D860D5A0C5A0C5A0C98
:1018A000840D8A8111E0813629F08B8116E08E3615
:1018B00009F017E0CE0105960E94AB0AD82E48E049
:1018C00050E068E670E0C7010E94460FC7010E9421
:1018D000AB0AC82ECE0104960E94AB0AB82ECE01E8
:1018E00007960E94AB0A382F86E0F70111928A957D
:1018F000E9F72AE0832F622F0E94BB11982F880FEF
:10190000890F880F830F8A838B2D0E94BB11982F1C
:10191000880F890F880F8B0D8B838C2D0E94BB1134
:10192000982F880F890F880F8C0D8C838D2D0E9426
:10193000BB11982F880F890F880F8D0D8E83812FF3
:101940000E94BB11982F990F890F880F180F1F83C2
:10195000802F0E94BB11982F880F890F880F800F4E
:1019600088878091900290919102FC0124813581B9
:101970002830310580F0208131E03093E902209356
:101980000B031092EA0210920C0321E048E050E0B1
:10199000B7010E941C0548E1842E42E0942E58E6CF
:1019A000A52E52E0B52E60E4C62E62E0D62EDA8E69
:1019B000C98EBC8EAB8E9E8A8D8A19820091900250
:1019C00010919102F80184819581892BE9F0808141
:1019D000F1E0F093E90280930B031092EA02109277
:1019E0000C0320E041E050E0BE016F5F7F4FC80173
:1019F0000E941C05882341F047E050E0BE016F5F64
:101A00007F4FC8010E945B0629812F77822F90E0CB
:101A1000F4E095958795FA95E1F7982F990F990F2E
:101A2000891B880F820F8D8F2A81822F90E0A4E07E
:101A300095958795AA95E1F7982F990F990F282EDC
:101A4000291A220C220E2B81822F90E0B4E095956A
:101A50008795BA95E1F7982F990F990FE82EE91A13
:101A6000EE0CE20E2D81822F90E014E09595879583
:101A70001A95E1F7982F990F990F182F191B110F2D
:101A8000120F2E81822F90E004E0959587950A959C
:101A9000E1F7982F990F990FF82EF91AFF0CF20E13
:101AA0002F81822F90E034E0959587953A95E1F764
:101AB000982F990F990F082F091B000F020F202F45
:101AC00030E0388F2F8B0E94A801882341F080914D
:101AD000BC038C3009F478C008F58B30C1F1412C7F
:101AE000512C50EC652E5FE7752E5BC08B8114E0A6
:101AF000823709F4DFCE18E0DDCE8B8113E0823728
:101B000009F4D8CE15E0D6CE19E0D4CE1AE0D2CE64
:101B10001BE0D0CE1CE0CECE12E0CCCE8551823080
:101B2000F0F63090B803632D70E0762F66276627B5
:101B30007F778091B903682B90E080E00E94540F7A
:101B40002DEC3CEC4CEC5DE30E94B50F59C060916C
:101B5000B80370E090E080E00E94540F2B013C013C
:101B60003090B90337FE0AC0AC019B0160E070E021
:101B700080E89FEB0E94A3102B013C01632D6F7046
:101B800070E090E080E00E94560F2DEC3CEC4CECB5
:101B90005DE30E94B50FA30192010E94A4102B01E6
:101BA0003C010E94A801882351F08091BC038B3036
:101BB00030F08D3070F18551823008F467C060E0FC
:101BC00070E080EC9FE745C03090B803632D70E073
:101BD00090E080E00E94540F2B013C016091B9031A
:101BE0006F7070E090E080E00E94560F2DEC3CECAE
:101BF0004CEC5DE30E94B50FA30192010E94A4107A
:101C00002B013C0137FECDCF77FA709477F87094B2
:101C1000C8CF6091B70370E090E080E00E94560F5B
:101C20002DEC3CEC4CEC5DE30E94B50F6E8F7F8F8A
:101C300088A399A36091B60370E090E080E00E94D1
:101C4000560F9B01AC016E8D7F8D88A199A10E94DA
:101C5000A410EB8DFC8D4192519261927192FC8F98
:101C6000EB8FE98DFA8D6193719381939193FA8F44
:101C7000E98F812F90E0EDE7F0E021E02F15C0F42F
:101C80003491830F911D2F5F3196F8CF6091B60389
:101C90007091B70376276727762790E080E00E944F
:101CA000540F2DEC3CEC4CEC5DE30E94B50FD1CF12
:101CB000F2E0FF1518F4037009F401962F89388DAE
:101CC0002D5F3F4F36952795369527956F89788DEF
:101CD000EDE6F1E06E9FA0016F9F500D7E9F500DCD
:101CE000112441505109240F351F280F391FA8E135
:101CF000B0E00E9494109B01AC012E0D311D411DDE
:101D0000511DACE3B0E00E9489109B01AC01220D93
:101D1000311D411D511D0E948910AB01BC01FD8D7B
:101D20008F2F90E0B0E0A0E080589C4BA249B74CC8
:101D3000840F951FA61FB71FED89FE89819391938C
:101D4000A193B193FE8BED8B68EE73E080E090E0A1
:101D50000E94760120E432E06D897E8926173707DC
:101D600009F02BCE10E000E0B501C8010E94820806
:101D7000B601C80104960E948208380178E0670E17
:101D8000711C045F1F4F2401F201F1902F01C30168
:101D90000E947310F81621F06F2DC3010E947B1072
:101DA000FFEF6F1A7F0A0615170571F724E0A20EE0
:101DB000B11C34E0C30ED11C64E0860E911C0837C0
:101DC000110591F682E891E00E944D0610E000E0D6
:101DD000BE01605F7F4FC8010E945C08BE01645F66
:101DE0007F4FC80104960E945C08680178E0C70E26
:101DF000D11CCE0101967C01045F1F4FC6010E94D9
:101E00007310F70181937F01FFEFCF1ADF0A0C15E2
:101E10001D05A1F782EA91E00E94FC056889798995
:101E20008A899B8942E00E94800780EB91E00E94B2
:101E3000FC056C857D858E859F8542E00E9480072C
:101E400080EC91E00E94FC0569817A818B819C8104
:101E50004AE00E9409068AE291E00E94FC050837E8
:101E6000110509F0B5CF60E27EE480E090E00E94C9
:101E7000760120E030E0232B09F48DCD0E9423036E
:101E8000882309F488CD0E94000085CDFB01DC0188
:101E900002C005900D9241505040D8F708950E941D
:101EA000910F08F481E00895E89409C097FB3EF48F
:101EB00090958095709561957F4F8F4F9F4F992397
:101EC000A9F0F92F96E9BB279395F6958795779515
:101ED0006795B795F111F8CFFAF4BB0F11F460FFD5
:101EE0001BC06F5F7F4F8F4F9F4F16C0882311F02D
:101EF00096E911C0772321F09EE8872F762F05C041
:101F0000662371F096E8862F70E060E02AF09A95DB
:101F1000660F771F881FDAF7880F9695879597F9D0
:101F20000895990F0008550FAA0BE0E8FEEF16166A
:101F30001706E807F907C0F012161306E407F507BD
:101F400098F0621B730B840B950B39F40A2661F031
:101F5000232B242B252B21F408950A2609F4A140D4
:101F6000A6958FEF811D811D08950E94C80F0C94C6
:101F700039100E942B1038F00E94321020F0952367
:101F800011F00C9422100C94281011240C946D1054
:101F90000E944A1070F3959FC1F3950F50E0551FB2
:101FA000629FF001729FBB27F00DB11D639FAA27AE
:101FB000F00DB11DAA1F649F6627B00DA11D661FFD
:101FC000829F2227B00DA11D621F739FB00DA11D1E
:101FD000621F839FA00D611D221F749F3327A00DD8
:101FE000611D231F849F600D211D822F762F6A2F74
:101FF00011249F5750409AF0F1F088234AF0EE0FD9
:10200000FF1FBB1F661F771F881F91505040A9F705
:102010009E3F510580F00C9422100C946D105F3F90
:10202000E4F3983ED4F3869577956795B795F79541
:10203000E7959F5FC1F7FE2B880F911D96958795B9
:1020400097F9089597F99F6780E870E060E0089538
:102050009FEF80EC089500240A94161617061806C0
:102060000906089500240A9412161306140605069C
:102070000895092E0394000C11F4882352F0BB0F2D
:1020800040F4BF2B11F460FF04C06F5F7F4F8F4F90
:102090009F4F089557FD9058440F551F59F05F3FCB
:1020A00071F04795880F97FB991F61F09F3F79F07A
:1020B00087950895121613061406551FF2CF4695FC
:1020C000F1DF08C0161617061806991FF1CF86957E
:1020D0007105610508940895E894BB276627772762
:1020E000CB0197F90895F999FECF92BD81BDF89A79
:1020F000992780B50895262FF999FECF1FBA92BD72
:1021000081BD20BD0FB6F894FA9AF99A0FBE0196D8
:1021100008950E949410A59F900DB49F900DA49FC8
:10212000800D911D11240895A29FB001B39FC0019D
:10213000A39F700D811D1124911DB29F700D811DF3
:102140001124911D08955058BB27AA270E94BB1047
:102150000C9439100E942B1038F00E94321020F09D
:1021600039F49F3F19F426F40C9428100EF4E095EE
:10217000E7FB0C942210E92F0E944A1058F3BA177B
:10218000620773078407950720F079F4A6F50C948D
:102190006C100EF4E0950B2EBA2FA02D0B01B90197
:1021A00090010C01CA01A0011124FF27591B99F0CD
:1021B000593F50F4503E68F11A16F040A22F232FD9
:1021C000342F4427585FF3CF469537952795A79529
:1021D000F0405395C9F77EF41F16BA0B620B730BD0
:1021E000840BBAF09150A1F0FF0FBB1F661F771F41
:1021F000881FC2F70EC0BA0F621F731F841F48F4F6
:10220000879577956795B795F7959E3F08F0B0CF7E
:102210009395880F08F09927EE0F97958795089565
:102220000E9424110C9439100E94321058F00E9420
:102230002B1040F029F45F3F29F00C94221051112B
:102240000C946D100C9428100E944A1068F3992386
:10225000B1F3552391F3951B550BBB27AA276217A2
:102260007307840738F09F5F5F4F220F331F441FAF
:10227000AA1FA9F335D00E2E3AF0E0E832D09150E3
:102280005040E695001CCAF72BD0FE2F29D0660FD0
:10229000771F881FBB1F261737074807AB07B0E813
:1022A00009F0BB0B802DBF01FF2793585F4F3AF019
:1022B0009E3F510578F00C9422100C946D105F3FF6
:1022C000E4F3983ED4F3869577956795B795F7959F
:1022D0009F5FC9F7880F911D9695879597F9089587
:1022E000E1E0660F771F881FBB1F62177307840723
:1022F000BA0720F0621B730B840BBA0BEE1F88F732
:10230000E09508950E94521088F09F5798F0B92FD9
:102310009927B751B0F0E1F0660F771F881F991F1A
:102320001AF0BA95C9F714C0B13091F00E946C1040
:10233000B1E008950C946C10672F782F8827B85F50
:1023400039F0B93FCCF3869577956795B395D9F772
:102350003EF490958095709561957F4F8F4F9F4F7C
:1023600008950E94910F08F48FEF08950E94910F35
:10237000880B990B0895991B79E004C0991F961753
:1023800008F0961B881F7A95C9F780950895A1E2F9
:102390001A2EAA1BBB1BFD010DC0AA1FBB1FEE1FDF
:1023A000FF1FA217B307E407F50720F0A21BB30B2A
:1023B000E40BF50B661F771F881F991F1A9469F7A6
:1023C00060957095809590959B01AC01BD01CF0102
:1023D0000895EE0FFF1F0590F491E02D09940F93DF
:1023E0001F93CF93DF938230910510F482E090E049
:1023F000E091CB03F091CC0330E020E0B0E0A0E02E
:10240000309799F42115310509F44AC0281B390B7E
:1024100024303105D8F58A819B816115710589F1D8
:10242000FB0193838283FE0111C0408151810281AF
:10243000138148175907E0F04817590799F4109786
:1024400061F012960C93129713961C933296CF015B
:10245000DF91CF911F910F9108950093CB031093BB
:10246000CC03F4CF2115310551F04217530738F052
:10247000A901DB019A01BD01DF01F801C1CFEF0124
:10248000F9CF9093CC038093CB03CDCFFE01E20F25
:10249000F31F819391932250310939832883D7CF39
:1024A0002091C9033091CA03232B41F420910201EA
:1024B000309103013093CA032093C9032091000196
:1024C000309101012115310541F42DB73EB74091FE
:1024D000040150910501241B350BE091C903F091D3
:1024E000CA03E217F307A0F42E1B3F0B2817390786
:1024F00078F0AC014E5F5F4F2417350748F04E0F60
:102500005F1F5093CA034093C903819391939FCF58
:10251000F0E0E0E09CCFCF93DF930097E9F0FC017F
:10252000329713821282A091CB03B091CC03ED01BC
:1025300030E020E01097A1F420813181820F931FB9
:102540002091C9033091CA032817390709F061C0E7
:10255000F093CA03E093C903DF91CF910895EA0194
:10256000CE17DF07E8F54A815B819E0141155105D1
:10257000B1F7E901FB83EA8349915991C40FD51F53
:10258000EC17FD0761F4808191810296840F951FFD
:10259000E90199838883828193819B838A83F0E018
:1025A000E0E012968D919C9113970097B9F52D91CB
:1025B0003C911197CD010296820F931F2091C90380
:1025C0003091CA032817390739F6309751F5109220
:1025D000CC031092CB03B093CA03A093C903BCCF22
:1025E000D383C28340815181840F951FC817D907B7
:1025F00061F44E5F5F4F88819981480F591F518365
:1026000040838A819B81938382832115310509F060
:10261000B0CFF093CC03E093CB039ECFFD01DC0160
:10262000C0CF13821282D7CFF894FFCF0000CD0322
:102630008000000000005903B902E602A603170358
:10264000F502090300000000CA059D05F9057305A0
:102650009605830574050D0A006E616E00696E664D
:10266000006F7666004E6F207365207075646F2072
:10267000656E636F6E7472617220656C2052544394
:1026800000456C20525443206E6F20657374C3A1C3
:102690002066756E63696F6E616E646F2E20436F86
:1026A0006E6669677572616E646F2E2E2E004461CE
:1026B000746F7320616C6D6163656E61646F73200C
:1026C000656E206C6120454550524F4D3A0054656F
:1026D0006D70657261747572613A200020C2B043FA
:1026E0002C2048756D656461643A2000252C2054C7
:0C26F000696D657374616D703A20000024
:107E0000112484B714BE81FFF0D085E080938100F7
:107E100082E08093C00088E18093C10086E0809377
:107E2000C20080E18093C4008EE0C9D0259A86E02C
:107E300020E33CEF91E0309385002093840096BBD3
:107E4000B09BFECF1D9AA8958150A9F7CC24DD24C4
:107E500088248394B5E0AB2EA1E19A2EF3E0BF2EE7
:107E6000A2D0813461F49FD0082FAFD0023811F036
:107E7000013811F484E001C083E08DD089C08234E0
:107E800011F484E103C0853419F485E0A6D080C0E4
:107E9000853579F488D0E82EFF2485D0082F10E0AE
:107EA000102F00270E291F29000F111F8ED06801E7
:107EB0006FC0863521F484E090D080E0DECF843638
:107EC00009F040C070D06FD0082F6DD080E0C81688
:107ED00080E7D80618F4F601B7BEE895C0E0D1E017
:107EE00062D089930C17E1F7F0E0CF16F0E7DF06D8
:107EF00018F0F601B7BEE89568D007B600FCFDCFD4
:107F0000A601A0E0B1E02C9130E011968C91119780
:107F100090E0982F8827822B932B1296FA010C0160
:107F200087BEE89511244E5F5F4FF1E0A038BF0790
:107F300051F7F601A7BEE89507B600FCFDCF97BE46
:107F4000E89526C08437B1F42ED02DD0F82E2BD052
:107F50003CD0F601EF2C8F010F5F1F4F84911BD097
:107F6000EA94F801C1F70894C11CD11CFA94CF0C13
:107F7000D11C0EC0853739F428D08EE10CD085E9AC
:107F80000AD08FE07ACF813511F488E018D01DD067
:107F900080E101D065CF982F8091C00085FFFCCF94
:107FA0009093C60008958091C00087FFFCCF809118
:107FB000C00084FD01C0A8958091C6000895E0E648
:107FC000F0E098E1908380830895EDDF803219F02E
:107FD00088E0F5DFFFCF84E1DECF1F93182FE3DFCA
:107FE0001150E9F7F2DF1F91089580E0E8DFEE27F6
:047FF000FF270994CA
:027FFE00040479
:00000001FF
